:20000000606700208D0100009501000097010000000000000000000000000000000000003D
:200020000000000000000000000000009F0100000000000000000000A3010000C15A000061
:20004000413C0000993C0000D93C0000193D0000593D0000993D0000D93D0000193E00000A
:20006000593E0000993E0000D93E0000E93E0000F93E0000393F0000493F0000593F000005
:20008000993F0000F13F000049400000A1400000F94000005141000061410000A14100009F
:2000A000E14100002142000061420000A1420000B1420000C1420000014300004143000077
:2000C0007E3FF0FF00F002F800F034F80CA030C8083824182D18A246671EAB4654465D466E
:2000E000AC4201D100F026F87E460F3E0FCCB6460126334200D0FB1AA246AB46334318471B
:200100005CB700007CB700000023002400250026103A01D378C1FBD8520700D330C100D5EB
:200120000B6070471FB50098019900F0AAFB1FBD10B510BD00F080FC1146FFF7F3FF06F0F3
:20014000BFFC00F098FC03B4FFF7F2FF03BC00F0F9FC000070B505460C46164602E00FCC43
:200160000FC5103E102EFAD2082E02D303CC03C5083E042E07D301CC01C5361F03E02178FB
:200180002970641C6D1C761EF9D270BD1948804719480047FEE7FEE7FEE7FEE7FEE7FEE703
:2001A000FEE7FEE7FEE7FEE7FEE7FEE7FEE7FEE7FEE7FEE7FEE7FEE7FEE7FEE7FEE7FEE7EF
:2001C000FEE7FEE7FEE7FEE7FEE7FEE7FEE7FEE7FEE7FEE7FEE7FEE7FEE7FEE7FEE7FEE7CF
:2001E000FEE7FEE7FEE7000004480549054A064B70470000FD5A0000C5000000104A0020C9
:2002000060670020606300206063002070B506F00BFA0123044600221B07C01A914101D3DF
:20022000002070BD204600F059FB050002D0214600F04AF9284670BD70B50446051F00F038
:2002400003FB0068002C1AD0446801E020466468002C01D0AC42F9D301680A18AA4204D160
:200260002A6805468918016000E0456028684119A14205D16168696021684018286070BD4F
:200280006C6070BDFEB5054610460C46184373D0AE468C460020AD1A01469C4167D366466A
:2002A000002701243D46B61A9D4102D313463A462124654676462F04360C3E432D0CB61A68
:2002C0009D4104D3150C1B042B4312041034654676462F06360A3E432D0AB61A9D4104D348
:2002E000150E1B022B4312020834654676462F0736093E432D09B61A9D4104D3150F1B01A8
:200300002B431201241D65467646AF07B6083E43AD08B61A9D4104D3950F9B002B43920046
:20032000A41C65467646EF0776083E436D08B61A9D411AD392185B41641C16E00018764601
:2003400065464941B71A9D410191009009D36046B11A98418E468446009801990025401C20
:200360006941DD0752082A435B08641EE6D57246634603B0F0BDFFE700200146C046C0466E
:200380002A462346F5E7034610B50B439B070FD1042A0DD308C810C9121FA342F8D018BA63
:2003A00021BA884201D9012010BD0020C04310BD002A03D0D30703D0521C07E0002010BDF4
:2003C00003780C78401C491C1B1B07D103780C78401C491C1B1B01D1921EF1D1184610BDEA
:2003E000F8B5042A2CD3830712D00B78491C0370401C521E83070BD00B78491C0370401C74
:20040000521E830704D00B78491C0370401C521E8B079B0F05D0C91ADF002023DE1B08C907
:200420000AE0FFF797FEF8BD1D4608C9FD401C46B4402C4310C0121F042AF5D2F308C91A88
:20044000521EF0D40B78491C0370401C521EEAD40B78491C0370401C012AE4D409780170F7
:20046000F8BD134610B50446CAB219461002821810048218204600F018F8204610BDD2B20D
:2004800010B513029A1813049A1800F00EF810BD01E004C0091F0429FBD28B0701D5028093
:2004A000801CC90700D00270704700290BD0C30702D00270401C491E022904D3830702D59F
:2004C0000280801C891EE3E70022EEE70022DFE78178C278037809041206114342781002BB
:2004E000184308437047020A08704A70020C8A70020ECA707047002203098B422CD3030A51
:200500008B4211D300239C464EE003460B433CD4002243088B4231D303098B421CD3030A3D
:200520008B4201D394463FE0C3098B4201D3CB01C01A524183098B4201D38B01C01A524155
:2005400043098B4201D34B01C01A524103098B4201D30B01C01A5241C3088B4201D3CB0098
:20056000C01A524183088B4201D38B00C01A524143088B4201D34B00C01A5241411A00D219
:2005800001465241104670475DE0CA0F00D04942031000D34042534000229C4603098B422B
:2005A0002DD3030A8B4212D3FC22890112BA030A8B420CD3890192118B4208D3890192114D
:2005C0008B4204D389013AD0921100E08909C3098B4201D3CB01C01A524183098B4201D3FB
:2005E0008B01C01A524143098B4201D34B01C01A524103098B4201D30B01C01A5241C3086B
:200600008B4201D3CB00C01A524183088B4201D38B00C01A5241D9D243088B4201D34B00FB
:20062000C01A5241411A00D20146634652415B10104601D34042002B00D54942704763469B
:200640005B1000D3404201B50020C046C04602BD7047704770470000F0B5FF252D04C6094B
:20066000C209FF2704462E400137CB093E4348402A402B400746002A6BD0002B69D0AA42E5
:2006800067D0AB4265D0002800DA32460125ED0529432C4309022002090AD21A4B0C7F246E
:2006A000E31A434C000A7C44E35C7D242404121914145B00A218884201D3521C00E0400048
:2006C00049420C465C4324115C43DB016415E318040A5C43C502200D0C4644436419250A54
:2006E0005D432303EC0C0D46654300030019EB184C42A34201D35B18401CD4052018002BD0
:2007000007D05B00C91804D3401C002901D1400840003F2189048A4209D3002A08DC110656
:20072000090F04D0032149074018C00FC007F0BD01224100120689187F2252069142F6D20D
:2007400005214907C84201D59010F0BDFF20C005F0BD002F00DA32461648AA4207D2AB42D4
:2007600005D21902090E17D0F80FC007F0BDFF2563002D06AB42F9D84900A942F6D8AB42A7
:2007800001D1A942F2D0A94201D1002101E061004908D0050843F0BD1102090EFBD0FF2088
:2007A0000243D005F0BD0A460146104654E700005EB100000000C07F0102C21504D001232A
:2007C000DB071943002A0ADB9E239A1A02D40846D0407047FF2241001206914201D9002025
:2007E0007047C017C04370471F22030C02D10F2200041CD0030E01D10002083A030F01D162
:200800000001121F830F01D18000921E002801DB4000521ED2055118021251181922904096
:2008200004D3491C002801D14908490008467047C10FC90700D04042012292071143D3E727
:2008400001218907D0E7000000487047B8490020704770477047704738B504460A4600208C
:200860006946C046C046002805D002462046009900F0A3F8012038BD10B5012000F0B7F853
:2008800010BDF8B5C046C046054600200C461020C0460646A819A0420DD9324669460020C3
:2008A000C046C046070001D100F0A1F80098A04200D00546C419FFF7C7FFF61D07460560D7
:2008C000F008C0004619284600F070F8B44204D031463868A21B00F070F8F8BD70B506461F
:2008E000FFF7B2FF056830460B30C408E400B44201D8002070BD68682A46002818D00168AE
:20090000A14211D30B46214608318B4208D3436801194B6003681B1B0B605160046001E005
:2009200041685160001D70BD024640680028E6D121462846FFF790FF0028DCD170BD0000E8
:2009400010B5FF231B0644009C421DD84C009C421AD80346124A0B4307D4401A02D3EFF37D
:20096000008010BDEFF3008010BD081A06D2EFF3008001219043C907084302E0EFF300804B
:20098000904380F3008810BD0D231B041A4204D01146002000F031F810BD00F045F810BDE6
:2009A0000000009000487047B0490020002101604160806070471020704710B50346406838
:2009C00001E003464068002801D08842F9D31868C3188B4206D0CB1CD808C000001D411AB9
:2009E000521A0146081D0A60FFF726FC10BD10B500F050F800F047F810BDC80212D54803DB
:200A0000400F002804D0C803C043012188407047EFF300800001000903210907084380F3BE
:200A2000008870470020704710B5024800F05AF810BD00000000C07F7546FFF7B3FFAE46EC
:200A4000050069465346C008C000854618B020B5FFF7CAFB60BC00274908B6460026C0C563
:200A6000C0C5C0C5C0C5C0C5C0C5C0C5C0C5403D49008D46704710B50446C046C046204602
:200A8000FFF761FB10BD10B5002801D000F05AF810BD000010B5012805D0002103A000F0F3
:200AA00058F8012010BD09A1F8E7000053494752544D454D3A204F7574206F662068656132
:200AC00070206D656D6F7279000000003A2048656170206D656D6F727920636F72727570A1
:200AE0007465640010B50C461107090F092904D00A290AD008290CD104E011460820FFF7F8
:200B00007CFF06E0510606D501E0510601D50120C007214610BDD10607D501010909CC087D
:200B20004907000E0006044309E0410F20024907000A0143200E00061D22D14101430846FA
:200B4000E7E7000001491820ABBEFEE726000200704770B505460C460A2000E06D1C00F0D3
:200B600012F8002D06D028780028F7D102E0641C00F009F8002C02D020780028F7D10A20D5
:200B800000F001F870BD08B5694608700320ABBE08BD70B58C180578401C6B075B0F01D1BA
:200BA0000378401C2A1106D10278401C03E00678401C0E70491C5B1EF9D12B0705D4002365
:200BC000521E0DD40B70491CFAE70378401CCB1A921C03E01D780D70491C5B1C521EF9D58A
:200BE000A142D8D3002070BD70B5C6B0064614460D46684605F07CFF80223146684605F0AC
:200C00007DFF23462A460121684605F05EFFC0B246B070BD70B505460C46800803D04B213F
:200C20000AA005F039FEA00803D04C2107A005F033FE0D48A9000818015D002902D003208F
:200C4000C04370BD01210155002070BD2E2E5C4472697665725C7372635C7363695F636F0B
:200C60006D6D6F6E2E630000C4020020044A0146044B525C595C01208A4200D1002070476A
:200C80004802002068B600001FB50B4900240C540A4800900846029004200190684602F009
:200CA000D9F8684602F0AEF904220549024800F093F9204604B010BD48020020000250003F
:200CC00000025000044A0349125C0A5403490020087070474802002068B6000029020020EE
:200CE00000B5006805F00EFE00BD000070B50D46040008D0012C06D0022C04D0FF2133313C
:200D000013A005F0C9FD002D06D0012D04D0FF2134310FA005F0C0FD1020002C09D0012C18
:200D200002D0022C03D004E02843402100E0C02108430C4A107050784006400E5070012C05
:200D400004D1FF20917801408142FBD170BD00002E2E5C4472697665725C7372635C6367AB
:200D6000632E63000004024070B50D46040003D1462109A005F090FD0C4E002D08D0012DCA
:200D800003D0472104A005F087FD3078204301E03078A043307070BD2E2E5C447269766505
:200DA000725C7372635C6367632E63002004024070B5044600060D46000E01D0002C03D1F6
:200DC0008A2109A005F068FD0C4E002D08D0012D03D08B2104A005F05FFDF07E204301E0B2
:200DE000F07EA043F07670BD2E2E5C4472697665725C7372635C6367632E630000080240E3
:200E000004480122027001780906FCD50248027070470000000C0240040000200023002868
:200E200000D08023012902D0022902D003E01B1D00E00833DBB2012A01D19B1CDBB20748F3
:200E40008370817801221143817000207D21090100BF401C8842FBD970470000000C0240B8
:200E600000B5C02080781A49C0080978C00001431848EA2923D009DCE0390B0005F0ECFBEA
:200E80000A191D21250E0E0E0E171B0EED2905D005DCEB2917D0EC2900D10F4800BDF0297A
:200EA00003D0F829FAD10D4800BD0D4800BD0D4800BD0D4800BD0D4800BD0D4800BD0D48B2
:200EC00000BD0D4800BD0D4800BD0D4800BD0000201C024040420F0080841E000090D0038B
:200EE000006CDC020048E80100366E010024F400001BB70000127A00808D5B0000093D00AE
:200F0000C0C62D0030B50A4C002228235343E558854207D81B19DD685B68EB188B4201D917
:200F2000002030BD521C1206120EEED0012030BD6CB6000070B50022104E41182823534331
:200F4000F458844209D80E4D2D686519A94204D89D196D6864198C4207D29C19A368834235
:200F600005D8E4681B198B4201D3002070BD521C1206120EE2D0012070BD00006CB600005E
:200F80000002002010B50A4C002128224A4312199368834205D8D2689A18824201D30020B0
:200FA00010BD491C0906090EEFD0012010BD00006CB6000030B588420CD0002A0AD0002358
:200FC00006E0C45CCD5CAC4201D0012030BD5B1C9342F6D3002030BD10B5884208D0002A62
:200FE00006D0002302E0CC5CC4545B1C9342FAD310BD000010B501F079FE00F027FC01F0BF
:201000005DF9064901204870002008760449502208738A7303490870022010BDBC090020E5
:20102000B4010020B101002010B5094900200873CA790346002A09D101227D244A75E40060
:20104000CC62044902240C704A700B7610BD0000B4010020BC0900200349012088730349FD
:201060000020087002207047B4010020B1010020002302E00170401C5B1C9342FAD37047B6
:2010800070B516460546002488B020460F4A07E01318FF3301331B792B540024401CC0B2EC
:2010A0008842F5D3FF216A460531084802F0C2FC202229466846FFF77DFF002802D022208B
:2010C00030700124204608B070BD000000045000F7B51D4C06462178002090B015460029CE
:2010E0001DD1FF2108AA0531184802F0A3FC2022174908A8FFF75EFF222700280DD0FF21F6
:201100006A460531304602F095FCF11D2022FD316846FFF74FFF00280AD02F700120217825
:2011200001290ED0022901D10020207013B0F0BD08480125057031460748119AFFF74CFFED
:2011400025700220F2E70000BB0100200004500004055000290200206C0B002010B50022AD
:20116000054B04E09C18647B8454521CD2B28A42F8D3002010BD00000040010010B5002232
:20118000044B03E09C5C8454521CD2B28A42F9D3002010BD00FD000008490978012906D007
:2011A000022904D0042905D0052901D104E00170002070470321FAE70421F8E7BC09002014
:2011C00010B50022054B04E09C18247C8454521CD2B28A42F8D3002010BD000000065000FC
:2011E00010B50022054B04E0D418247A8454521CD2B28A42F8D3002010BD0000000A5000A2
:2012000010B50022054B04E0D418247C8454521CD2B28A42F8D3002010BD0000000A50007F
:2012200010B50022054B04E0D418647F8454521CD2B28A42F8D3002010BD0000000A50001C
:2012400070B5124A034614780120002C06D0012C19D0022C01D10020107070BD00200C4CBA
:20126000FF252618401C75770D28FAD3002003E01D5C26187577401C8842F9D305490320B9
:20128000087001201070022070BD0000BB010020140B00202902002010B50022054B04E065
:2012A000D418A47A8454521CD2B28A42F8D3002010BD0000200A500070B5134E0022337809
:2012C000002B04D0012B19D0022B19D01AE000220E4DFF23AC182034521CA372042AF9D3B6
:2012E000002204E0AC18835C2034A372521C8A42F8D307490320087001203070022201E026
:2013000000223270104670BDBB010020140B00202902002030B505460120074B00220C242B
:2013200054431C5BAC4202D100200A7030BD521CD2B2092AF3D330BD38B50000F0B50120CC
:2013400000230A4D06461F460C245C432C5B8C4202D100201370F0BDCC0705D017705B1C75
:20136000DBB2022BF0D3F0BD1670F8E7F4B4000030B50120074C00230C255D43655B8D425A
:2013800002D10020137030BD5B1CDBB2032BF3D330BD0000A4B5000030B50120074C002330
:2013A0000C255D43655B8D4202D10020137030BD5B1CDBB2032BF3D330BD00007CB4000055
:2013C00030B500200B4B1124024664014521C90041435A54C9180D19EA714A70401C4A802D
:2013E000C0B28A800328F1D3024803496438086130BD0000440300205C0A0020F7B50C460F
:2014000045210546C90048431249A288461877880123974219D3002A19D00F4F6D007B5B48
:20142000801D59180818216803F094FE785BA188401880B278537188884201D3002078539D
:20144000A088081A0299002308801846FEBDB088F8E700004403002004020020F8B5164D2F
:201460000C46A97D2F4628465637408B1E46012906D0022904D0397808290AD00120F8BDC4
:201480000D49A288263107E080B2081A30800020F8BD0A49A28809690918206803F05AFED2
:2014A000A088698B401880B2688379888142EBD800206883E8E70000B40100205C0A0020DF
:2014C0000D481022C17B042903D0022900D1C2737047017C094B00295974F9D0064B08492F
:2014E00060331961054956310A70054964310A700121C17370470000FC090020B40100202C
:20150000E002002002060549002A01DA012200E0002240064A73400E70470000FC0900201C
:2015200030B50F4A0F48917D0F4BCC0701D0841D06E00E4C4525A478ED006C432018841D2E
:20154000D46044885480407810701361044B0020A03B187740335873FD200140917530BDA3
:201560005C0A002044030020E0020020B401002010B5074CE07B202803D1FFF7D1FF00F062
:20158000EBF8E07B102801D100F012F910BD0000FC0900200FB4FEB508A8474E07780025B7
:2015A000F574464C3575607B012840D0304656300078102837D1217C012050220623032939
:2015C00038D0012951D050295AD020464038007F00286AD00320694688840C997F200870BC
:2015E00020466030C0680C99007848700E980C99007F88706946888C88800C9900912E49BE
:20160000563148800820087008A90878694603F0F9FB4520C00047432948E573C555274813
:20162000403805773563FEBC08BC04B0184700F02DF9F8E7F17BFE2914D1FF21F1730C99F7
:201640000A700C9A022151700C998D700C9A3221D1700C990D710C9AC821517169468B8478
:2016600008A9087000202074C4E70C9A512111700C996A4648700221918408AA1070F1E7FA
:201680000C990A700C99024648700C9885700C993220C8700C9805710C99C82048716946AF
:2016A0008B8408A90A702574A4E70B980C990078403008709EE70000B4010020FC090020A5
:2016C00044030020FEB50020009001902148204D0446AE7D603CC26878237F27617B007809
:2016E000012E1BD0022E18D16E6B002E15D12E462636377012787270B37003226B46009658
:201700009A80012902D0194603F07CFBFF20913068630520E07301202875FEBD0C4E263698
:20172000377012787270B37003226B4600969A80012902D0194603F065FB01202875FF2062
:20174000913068630520E0730220A875FEBD0000B40100205C0A002030B5134D0124E86876
:20176000007804F061F92A46A03AE875FF2814D001010E4813780818017B407B0B4201D198
:201780007F200BE05178014201D1332006E00648002410216038C17303E01120107700F0AE
:2017A000A7F8204630BD00005C0A0020C8B5000070B50E4C0E4DE17D0801401942680B489D
:2017C00090470328F7D0022802D000F091F870BD084901208A7D002A00D18875A17DC9073F
:2017E000F5D002496039487370BD00005C0A0020C8B50000B401002010B5FFF7E1FD01F0F6
:20180000CDF900F0E9FF00F021F800F057FD0548012101700021817503480421C17300F052
:201820008BF810BDB4010020FC09002010B500F08DFF01F087F9FFF743FEFFF799FEFFF7F2
:2018400041FF00F009F800F06DF810BD0149002008727047BC0900203EB50B48C07B01280B
:2018600010D10948084C40380146A4310290C86809691C3C00902046019180300EC8E06F65
:20188000FFF788FE3EBD0000FC09002070B5154900240C70144901220C7712491248563942
:2018A0004A757D22D200CA620F4918224031CC732146A030FFF7DCFB642200210B48FFF796
:2018C000D7FB0A4D45266435F6004520C0006043401932460021FFF7CBFB641CE4B2032C2A
:2018E000F3D370BD0A020020BC090020E00200200A480122807D0021C30708486038002B72
:2019000001D0427305E0054BA03B1B7F002B00D04173034B01739975C27370475C0A0020A6
:20192000B40100200349086C401C0864401C00D108647047B4010020F0B587B0514C00208C
:2019400005AF011909783954401CC0B20428F8D30020011909783954401CC0B20428F8D3D9
:201960006846807D0025484A484EFF2836D06946C97DFF2932D070731173022801D301209D
:20198000B0714348117B0279914207D300680521FEF7B1FD0146002000F050FF0020694641
:2019A000021912790A54401CC0B20428F8D3A0683064411C15D0401C3064002006AD0119A3
:2019C000097A2954401CC0B20428F8D368464078002808D0FF2806D0FE2005E0757315736C
:2019E000CFE73564E9E7FF20F07304200290039701940220FFF73AF9234E4036002803D034
:201A000068460078012824D00220FFF72FF900281DD068460078502819D172B601F0E8F9AC
:201A200001A801F0BBF901A801F0EAF901A80397019401F0E5F9134803950830019001A8CF
:201A400001F0DEF901F0A4F95020307462B607B0F0BD72B601F0CCF901A801F09FF901A8E7
:201A600001F0CEF901A80397019401F0C9F9054803950830019001A801F0C2F901F088F9AE
:201A80000120E2E700085000BC090020B40100200CB50000FEB50D460646002069460871EF
:201AA00008721C480124C0684078FFF72BFD014602AA284600F020FC034616486038007BFE
:201AC00000280DD0012814D002281BD0102069460871104968460079A03908772046FEBD8E
:201AE00001A800906846027A2946304600F01EFC06E06846027A01AB2946304600F074FC93
:201B00000446E6E76846027A01AB2946304600F03DFCF5E75C0A00203EB50C4605460020B8
:201B20006946087108721648C0684078FFF7EAFC014602AA204600F0DFFB0346104860388D
:201B4000017B00290BD0012912D010206946087101200B4A69460979A03A11773EBD01A8F4
:201B600000906846027A2146284600F055FCF0E76846027A01AB2146284600F07DFCE8E7DB
:201B80005C0A002008B500216A4611700F490A461C3A127B002A0DD0012A0FD0022A11D007
:201BA0001020694608700120084A694609785C3A117708BD6A4600F0D1FCF5E76A4600F05F
:201BC00077FCF1E76A4600F0E7FCEDE7180A002070B50C4615460321601CFEF78CFC0C49DD
:201BE000C20041180B48097B1218127991420BD136212970E10040580521FEF77CFC01464C
:201C0000204600F01BFE70BD3520287070BD0000BC0900200CB50000FFB581B001200090D2
:201C200026482649407824270E7E1D461446022826D0042824D02248407B02282AD01F488B
:201C4000002707760C20264646431E482A4630188368214601989847194900900F7300283B
:201C60001AD0204600F0E8FC0321601CFEF743FCC1B22A460198FFF7ABFF009805B0F0BD56
:201C80000321601CFEF737FCC1000F4808184079B042D0D12F70F0E74F730321601CFEF72B
:201CA0002AFCC0B2002100F0DBFC019802218180019904480969805D4870DEE7BC09002050
:201CC000B4010020F4B400000CB500007CB50C46054600206946087008711948C0684078F7
:201CE000FFF710FC014601AA2046FFF727FB14486038007B00280DD0012812D0022817D0E2
:201D000010206946087001200D4A69460978A03A11777CBD6B461A792146284600F0AEFC76
:201D2000F2E76B461A792146284600F00BF8EBE76B461A7921462846FFF76EFFE4E70000A5
:201D40005C0A0020FFB504463F4881B0C0680B4601254078FFF7D6FB0646014603AA18468B
:201D6000FFF7ECFAF00766D06846077B0321781CFEF7C1FB81003448A0380818006937210B
:201D8000002802D0049801705AE03048427B022A24D00546007B002825D02D482269017851
:201DA000917022694178D1702269817811712169C07848710620A0806846007B0C21254A11
:201DC0004143515C2269244F51701F49A0390E764978022911D004290FD021E0049A117055
:201DE000012181712CE00C201A4978434018836839462046049A9847DCE70321401CFEF79C
:201E00007AFBC000C0194079B04209D12169002088702169C870216908712169487108E09D
:201E2000287B401CC0B22873012802D9687B401C6873002504E004480221603801730325CC
:201E4000284605B0F0BD00005C0A0020B40100201A020020F4B400000CB50000FEB50E46AB
:201E600005460020694608710872E8680124817842780802104341BA02AA3046FFF778FA4B
:201E800003461148007B00280BD0022812D01020694608710C4968460079403908772046E4
:201EA000FEBD01A800906846027A3146284600F0CFFC06E06846027A01AB3146284600F0D3
:201EC000F5FC0446E6E70000FC090020F0B5044687B00B4600206946087406460870E06807
:201EE000C17882780802104340BA0146059004AA1846FFF751FA6288042A71D301280CD0CE
:201F00006846017C0C200B4643435748574F181883783D78C0781D4201D1312019E07B78C8
:201F2000034201D1332014E01C256943E068504D43786D5CAB4229D14D4D4F193D69002D31
:201F400024D0B9888A424BD14A4F3A7C002A03D00AE06946087080E0059AD31FFF3BFF3BA2
:201F600002D00120387426E000223A7401AB6A46001DA847060070D1012078726846007C08
:201F80001C2148433A494018458947E0384FC9194D78AB421BD14D69002D18D0CB889A42A8
:201FA0001ED1344B5A7ADC7A22432AD01A7C032A04D2521C1A74022007B0F0BD00221A745F
:201FC000097B01AB6A46001DA847064645E08F78BB4238D18F69002F35D00D89AA4201D018
:201FE0001320B6E723494A7A8B7A1A4309D000220A74E9B201AB6A46001DB847060002D01B
:202000002BE02420A5E71B48407A012806D16846007C1C21484316494018C589281DA0806C
:20202000E0682169407848706846007C0C2148430D4923690A5A120A9A70085C216901AA77
:20204000C870002007E0122083E7115C071D2369401CD95580B2A842F7D3684603490078A6
:2020600008773046A8E700007CB40000BC090020A0B40000B401002008B500216A4611708F
:202080000C490A46593A127B002A0BD0012A0DD01020694608700120064A69460978993AA3
:2020A000117708BD6A4600F01DFCF5E76A4600F073FCF1E7550A0020F8B53B4E002577798D
:2020C0000446012F3ED00121B06B0904884203D1B08BC9110843B083307FC00707D06188C7
:2020E0003248814205D931250120307257E0242555E0F28B002A03D1E0684078002809D07B
:20210000E3685878904207D10220A08021695878487046E0732542E0831A012B01DC90424E
:2021200000D27325521CF283D3B21F4A8342526C02D0401C834230D1891E88B280187064A0
:20214000002F16D0002070716188E268891E921CB06C04F0EFF9002804D0B08B72254008D3
:202160004000B083B06CFEF70DFF114F002804D007E0012070710220F8BD3968B06C01F005
:2021800075FCB06C39684018B064002070710220A080E068216940784870002D01D00548D5
:2021A00005770020F8BD0000B40100200202000024020020BC09002008B500216A461170BB
:2021C00009490A465D3A127B002A09D01020694608700120044A694609789D3A117708BD1C
:2021E0006A4600F057FCF5E7590A002008B5034600206A461070094A0120127B002A08D034
:2022000010216A461170054A69460978403A117708BD6A46184600F079FCF4E7FC090020A3
:20222000074801780748012907D007490978002903D00121C175C8B270470021FAE700002E
:2022400028020020B4010020B0010020F0B54521C900164C9C464143635C0125002B23D1EE
:20226000002A1FD0124DAA421BD8124B01269F7D002801D0B74300E037439F750E4B074660
:202280009870081947704280665485806046058008480025A0380078012805D00020587502
:2022A00002E00325002060542846F0BD44030020220200005C0A0020B40100200A490120CB
:2022C0000870487000200876087740310873C8730649EE238A8B9A43054B1A408A83087108
:2022E0000449087070470000BC090020B4010020FFC0000015020020F0B504460A4D01204B
:2023000000232401641967780AE00C26A5685E43AD5B8D4202D100201370F0BD5B1CDBB251
:202320009F42F2D8F0BD0000C8B5000070B50E011449054671180C2689687243161D8E5B6F
:202340006D880120049CAE4201D0132117E0012B14D0931CCB5CD21C895C0B4A15781D42E1
:2023600001D17E210BE052780A4201D1332106E00548012140300173032070BD1221217078
:2023800070BD0000C8B50000BC09002070B504460C2042431148101885681A462046A8476B
:2023A00000281AD10E490978012905D00D4901224A757D22D200CA620621A180E168226942
:2023C0004978517022690021917023693222DA70226911712269C821517170BD14B500006B
:2023E000BC090020B40100200C2010B5424308480224805A074A022803D1FFF711FF0128DF
:2024000002D01473032010BD2221197010BD000014B50000FC09002070B50E011449054610
:2024200071180C2689687243161D8E5B6D880120049CAE4201D0132117E0012B14D0931CBE
:20244000CB5CD21C895C0B4A15781D4201D17E210BE052780A4201D1332106E00548012154
:2024600040300173032070BD1221217070BD0000C8B50000BC09002070B504460C204243B5
:202480000948101885681A462046A847002809D1064A0121517011700221A180E168226953
:2024A0004978517070BD00002CB50000BC090020F7B50E4681B000216A4611703446203456
:2024C000C168607A01254000401C0818417802780802104347BA69463846FEF71BFF002822
:2024E0001ED1684600780C2148431A491A4B401881781A78C0780A4212D05978014203D116
:2025000003983321017021E0E07A80003752E17A68468900007889198870E07A401CE0724B
:20252000607A0325401CC0B26072217A88420DD1E07A002806D008480221403001730020E7
:20254000607203E03121039801250170284604B0F0BD000038B50000BC09002010B5034693
:202560005B880120032B03D3DC0701D0132B02D91321117010BD5B1ED80FC018401020312B
:2025800008720020C87248720120887201490873032010BDFC090020F7B50C46064620341A
:2025A000607A8CB08000401880780C210A9048431F490025401807798368394668460E9ABE
:2025C000984700280CD0012808D0617AE27A914200D003200E99174A097811770FB0F0BD9D
:2025E000617A0C22491C61720A99A37A5143104A8C46515A3269090AD1540D4A6146515CF1
:20260000A37A3269D218517008E0A37A32696946D218495DAB1C6D1CD154EDB2BD42F4D39E
:20262000A17ABF1CC919C9B2A172B180CDE7000038B50000BC09002010B504460321401CEE
:20264000FDF759FF05494018007B401CC1B2204600F006F800F04AFB10BD0000BC09002003
:2026600010B50C460321401CFDF745FF0249C0B20818047310BD0000BC090020FFB5074684
:20268000224881B0C0681C460E4600254078FEF739FF0146009003AA3046FEF74FFE79887A
:2026A000132302290ED301280ED0194A3001801886686846007B0C2702467843071DF65BE3
:2026C0008E4203D023701EE012200EE011490F4E4018A03E81783378C0780B4201D17E2020
:2026E00003E07178014202D1332020700BE02146009800F011F80546012804D0034801217D
:20270000603801730325284605B0F0BD5C0A0020C8B50000F4B4000070B500240D46C007A7
:202720000ED10321501CFDF7E6FE0649C000401805494079097E884202D0012424202870C0
:20274000204670BD0CB50000BC090020F8B500241E4E27461E4801194A7E012A14D1A2009C
:2027600012181069002802D0401E10610CE07078012818D0174AE00080180079401E0873DD
:202780000021204600F04CF8641CE4B2022CE1D3B079012806D1308B7D21090188420DD251
:2027A000401C3083F8BD00250021284600F038F86D1CEDB27770022DF6D3E5E7B7713783CC
:2027C0003773707B401E7073F8BD0000B4010020BC0900200CB5000070B50024084E2546E9
:2027E00034763019457600212046FFF739FFA0008019641C24060561240EF2D070BD00000C
:20280000BC09002010B50C460321401CFDF773FE00060249800D4018046110BDBC0900208A
:2028200010B50C460321401CFDF765FE0249C0B20818447610BD0000BC09002010B5044652
:20284000FFF7E0FF01212046FFF7EAFF10BD000030B504466488012013250399032C01D857
:202860000D7030BD012B1BD00C235A430D4BD2189388DB1C9C42F3D10B4C9378D27865788C
:20288000154202D133220A7030BD22781A4201D12222F8E70448022140300173032030BD04
:2028A0003122F0E7A4B50000BC090020F8B5044615460C2045430A4FE068EA1991889668EF
:2028C0001A46C01CB047012808D00321A180795B2269090A51702269795D9170F8BD000035
:2028E000A4B50000F8B50646C0680D4640780870F1680127897814460907090F6970F168A5
:2029000089780909A9702149102808D0002817D03120207070880B2815D013201AE00120C3
:202920000870F068027AC37911021943427A49BA09041202807A1143084302F0DFFBE9E78B
:2029400000200870E6E76878042802D1A878042802D03120207016E00D492222888BC307C7
:20296000002B04D02270888B4008400005E0800605D52270888B20229043888303E001201D
:202980000449032708733846F8BD000016020020B4010020FC090020F8B500246946054615
:2029A0000C70C0681746C178837909060B43017942790904120211430B43324901268B64FB
:2029C000C279817A12061143027A407A12040002024311432B488C46C16483633004834225
:2029E00003D1284A0121D170D0632649834204D1087F000701D422201CE07F2040028342AB
:202A000003D121480078012813D06A466146184602F00AFC06000CD11A486A46817C1278CC
:202A200091420BD0FF2908D018490978002905D00126312038703046F8BD8274FF218174B2
:202A4000818B0127394381830021C1834164806CFEF798FA002802D1012001F04DF80420CF
:202A6000A8802969202048700949381BC2000846D040A31C2A69641CE4B2D054022CF4D35E
:202A8000D9E70000B4010020160200201202002002020000F8B51C4904258B8B01242B434D
:202AA0008B838D6B2604AC46B54202D1A5022B438B834388012B01D013200FE08D8BEB0713
:202AC0000BD0CF6C4E6C0123BE4209D024201070888B984388830B7214E02420107011E046
:202AE0007F246402A44500D10B716A0852008A8383800024886CFEF745FA002802D1042058
:202B000000F0FAFF2046F8BDB401002030B503460B481546C06801244078FEF7F3FC598836
:202B2000022901D0132002E0002802D01220287004E000240221998019694870204630BDEF
:202B40005C0A002070B5134C0025607D01280CD1E06A002802D0401EE06206E00E48012121
:202B600001706575057200F083FAE07C012806D1206B002802D0401E206300E0E574207D8E
:202B8000012804D1606B002802D0401E606370BD257570BDB4010020BC0900200549002035
:202BA0004875C874044A087550769076C862086348637047B4010020BC090020F0B50546E4
:202BC00003464520C0004343234800241A185678AE4210D1214D224F002600290CD0FEF7A2
:202BE000EFFB38467E8350306100641CE4B24652032CF9D3EE73F0BD91793E2905D1D17943
:202C0000802902D15188022914D00221C1540A203863134850306100641CE4B24652032C3A
:202C2000F9D30120F8742020E8730D49102056310870F0BD012179757D21C900F962C65482
:202C40009671D6710548567056806030817D490849008175F0BD000044030020FC090020E6
:202C6000B401002070B500251A4C0646002929D1A17D012907D0022905D0204656300178DC
:202C8000082907D01EE01448C17B05291AD10221C17317E005701048182200216030FEF782
:202CA000E7F9642200210D48FEF7E2F94520C00046430A48452264303018D2000021FEF73D
:202CC000D7F9A575012060757D20C000E062658370BD0000B4010020FC090020E002002064
:202CE0000149087470470000FC09002010B588B00020204B0590997B6C462175D97B61758F
:202D0000196C0A0E22740A0C62740A0AA274E174194A06A9841824780C54401CC0B2042871
:202D2000F8D3587B6B4698761448007BD87672B6042000920291019000F05AF8684600F02F
:202D40002DF8684600F05CF80B48001D009005A80290684600F054F807480830009004A870
:202D60000290684600F04CF800F012F862B608B010BD0000B401002000085000BC09002036
:202D800010B502F043FF03F0BFFB10BD72B670470149F0200862704700000240F8B5002453
:202DA000124D00681021E96055216960AA21A960611E2646012701600AE00A20641C03F0C4
:202DC00099FDFF20F530844202D92F60EE6009E02868C007F1D02F60EE602868400703D50E
:202DE000042028600120F8BD0020F8BD000002400149F120086270470000024000207047A5
:202E0000F8B500240568074626461149AA20486055208860B868421CBA60007828706D1C61
:202E200009E00A20641C03F065FD0A2C03D9084901200860F8BD06480068C007F1D004497E
:202E400001200860761C042EDFD30020F8BD0000000002401FB50446FFF798FF2068009099
:202E6000A068029060680190FFF7C2FF6846FFF795FF0446FFF78CFF00F0FEF8204604B0A5
:202E800010BD000010B5FFF7B3FF04220C490D48FEF7A2F8FF2225320B490C48FEF79CF8F0
:202EA00035220B490B48FEF797F80B490B4A002043181B781354401CC0B23228F8D310BDB2
:202EC0000002500048020020000450006C0B002000065000900C0020000A5000140B0020A0
:202EE000F0B534A085B00068334C04902078FF2806D06178052903D2491C617005B0F0BDA0
:202F0000002102252D4E6170002806D0012814D0022831D003282CD13FE0294800906846F1
:202F2000FFF798FF2748029004200190684600F069F804222449234818E0244800906846AF
:202F4000FFF788FF2248FF27253702900197684600F058F804A80290042001901D48009008
:202F6000684600F04FF83A461B491948FEF734F83570FF202070C1E71648703000906846CE
:202F8000FFF768FF1548029035200190684600F039F8352212491148E8E7124800906846BE
:202FA000FFF758FF1048029032200190684600F029F8DDE7CC00000029020020BB01002081
:202FC000000250004802002000025000000450006C0B00209005500000045000900C002003
:202FE00000065000000A5000140B00201FB50168009181680291406801906846FFF7FEFEBF
:2030000004B010BDF0B506688568446887B072B6FFF7EEFE05AF23E0042C07D30020295CDC
:203020003954401CC0B20428F9D310E0002003E0295C3954401CC0B2A042F9D3E0B2FF210A
:2030400002E03954401CC0B20428FAD30424684602970096FFF7D4FE241F2D1D361D0490F9
:20306000002CD9D1FFF794FE62B6049807B0F0BD10B503F04FFA10BD62B670471FB50C4A13
:203080000346002052690446002A0CD0094803900294009301910220FDF7F6FD684600F076
:2030A00047F9002801D104490C8104B010BD0000300200200B6500001002002010B500F0D2
:2030C00013F9002010BD000010B5084C2178042906D10220FDF7CAFD002802D001202070B9
:2030E00010BD02202070002010BD0000B001002010B50020FDF7BAFD0749002804D0042093
:2031000008700124204610BD00200870044602460146FDF789FFF5E7B001002010B5084C2C
:203120002178012907D10120FDF7A0FD002803D005202070012010BD03202070002010BD04
:20314000B001002010B50020FEF756FB002001F065FD002010BD10B501F08AFA03F0D9F914
:20316000FFF790FEFFF788FF002010BD10B51548012100780904002804D0022819D003285E
:2031800015D10FE00020FDF77FFD04460E484079FE2805D00020FFF7A3FD002C10D006E0CE
:2031A0000320F8E70120FDF76FFD002800D0012010BD0868401C03D0FFF7E2FD01F028F920
:2031C000002010BDB00100200008500000207047F3B581B00198C58824E00198E900006855
:2031E000471800247E6817E0E00081198988029A914201D003290DD1325802990198904705
:20320000012807D0002804D1E0008019C18801980181FEBD641CA4B27888A042E4D8054858
:203220008542F6D103488542F3D001988088A842D3D8FEBDFFFF000070B54189094E0446AC
:2032400000290BD0002060812046FFF7C1FF05E0268101212046FFF7BBFFE5802589B5427F
:20326000F6D170BDFFFF000001F070FF01F082FF02F0E0FC01F0DAF803F05AF9164C174DED
:203280000026174F03F041F902F0CEFC0128F9D1002002F0D9FC00F007FCFEF7C7FA01F045
:2032A000F1FBFFF71DFE38780028EBD1607B01280ED0FE2028707878401CC0B278700A280D
:2032C000E0D17E7072B6FFF711FDFFF7D1FED9E704480670FF20EDE7FC090020C3010020E0
:2032E000B1010020C2010020FFF7BEFF10B5084C064820600720A08004E005480421418120
:20330000FFF79AFFE0880728F7D110BD44B40000D002002000B589B020216846FDF7D6F869
:20332000684600F01BF96846808809B0C0B200BDF0B589B007460020694608703D687C6842
:20334000284600F057F8002801D1E80501D0012600E00026202101A8FDF7B8F800F068F8FD
:2033600012E0039503F0D1F8FFF710FD01A800F0FBF8FFF781FE03F0C8F8684600890028F1
:203380000BD0012603F0C1F8002C01D0002EE8D0FFF7C0FF304609B0F0BD03F0B6F86846BC
:2033A000FF350078FF350235012803D0012149028C4201D20024E5E7FF3CFF3CA41EE1D013
:2033C00028210B4B41435A58C9184B68C968D2185118A942D6D8401C0006000E69460870D0
:2033E00001D07C68CEE72821484301490D58C9E76CB60000F8B50F4605460126002403F083
:2034000084F82821094A61435058A84208D889184A68C96880184018A84201D93C70002674
:20342000641C2406240EEAD03046F8BD6CB6000000B589B020216846FDF748F8684600F0FA
:20344000BDF86846808809B0C0B200BDF8B5002485680094C0C804E0305D285503F055F811
:20346000641CBC42F8D30098F8BD0000F0B589B0064600206946087035682846FFF7BAFF8B
:20348000002801D1A80700D00120324908707468B668202101A8FDF719F8FFF7C9FF2E4F7B
:2034A00030E0042C08D32B490020491C325C0A54401C0428FAD30FE026490020491C02E0F2
:2034C000325C0A54401CA042FAD3FF2001E00855641C042CFBD304241E480395401C059003
:2034E00003F013F8FFF752FC01A800F06DF8FFF7C3FD03F00AF86846008900280ED0154847
:2035000001210170002C03D0124800780028C8D0FFF700FF0F48007809B0F0BD241F2D1DD0
:20352000361D002CF4D068460078282141437A58C9194B68C968D2185118A942E4D8401C67
:203540000006000E69460870E2D1282148433D58DAE700002B0200206CB600000149F0208A
:203560000862704700000240F8B50024124D80681021E96055216960AA21A960611E264658
:20358000012701600AE00A20641C03F0B3F9FF20F530844202D92F60EE6009E02868C0076D
:2035A000F1D02F60EE602868400703D5042028600120F8BD0020F8BD000002400149F120CA
:2035C0000862704700000240F8B500248568074626461149AA204860552088603869421CE9
:2035E0003A61007828706D1C09E00A20641C03F081F90A2C03D9084901200860F8BD0648A8
:203600000068C007F1D0044901200860761C042EDFD30020F8BD00000000024070B50546E7
:203620000C46800803D0732108A003F035F9A00803D0742105A003F02FF90B48A900081894
:20364000015D012901D10021015570BD2E2E5C4472697665725C7372635C7363695F636FD8
:203660006D6D6F6E2E630000C4020020F0B5002685B00C46054600281DD0012D1BD0022D22
:2036800019D0032D17D0042D15D0052D13D0062D11D0072D0FD00C2D0DD00D2D0BD00E2D72
:2036A00009D00A2D07D00B2D05D00F2D03D0FC2147A003F0F1F82088010A01D1002803D1A6
:2036C000FD2143A003F0E8F8A078012805D0002803D0FE213EA003F0DFF8E078012805D0E8
:2036E000002803D0FF213AA003F0D6F83F483E4B20302818203303903C4AE81802903A49F3
:20370000A8180190681800900127B7402188B8B20140814255D1A0790128009800780BD0BF
:20372000B84300990870E078002807D003990978B040014303980EE03843F2E703980078E5
:203740000399B8430870A078002806D002990978B0400143029801701EE00298007802993E
:20376000B84308702079002811D0012807D0FF21183117A003F090F82079002807D0019868
:20378000017C2079B04001430198017404E00198007C0199B84308746079002811D00128BC
:2037A00009D002280DD0FF212B3109A003F074F86079012805D10D4820382818017C3943E7
:2037C0000174761CB6B2082E9ED305B0F0BD00002E2E5C4472697665725C7372635C677076
:2037E000696F2E63000000000003044040000440FFB5002581B01F460E46044600281ED072
:20380000012C1CD0022C1AD0032C18D0042C16D0052C14D0062C12D0072C10D00C2C0ED0F8
:203820000D2C0CD00E2C0AD00A2C08D00B2C06D00F2C04D0FF21E43124A003F02DF8300AEA
:2038400001D1002E04D1FF21E53120A003F024F8222F04D3FF21E6311CA003F01DF8002C3F
:203860000CD0032C0DD0042C0ED0052C0CD00C2C0DD00D2C0ED00E2C10D011E0402E11D8B7
:203880000EE0022E0ED80BE0202E0BD808E0102E08D805E0B61E3E2E04D301E0202E01D006
:2038A000104802E0012005B0F0BD0A216943415CB94204D12846039900F054F803E06D1C55
:2038C000ADB2212DF1D30020EDE700002E2E5C4472697665725C7372635C6770696F2E631F
:2038E0000000000088B2000070B50D4604001ED0012C1CD0022C1AD0032C18D0042C16D0C6
:20390000052C14D0062C12D0072C10D00C2C0ED00D2C0CD00E2C0AD00A2C08D00B2C06D011
:203920000F2C04D0FF21473107A002F0B5FF280A01D1002D04D1FF21483103A002F0ACFFB4
:2039400007482018057070BD2E2E5C4472697665725C7372635C6770696F2E6300000000DA
:2039600080000440F0B58C4631490A2400222F4B6043441850001018201801214156491CFB
:203980000BD08678082E1BD04178092E24D0CD18697D0127B740B9436975C578654540D18D
:2039A0005100511861188978082921D009292BD04078C018427D01238B401A434275F0BD85
:2039C0004178C9184D7D6D086D004D754178C9184D7DFD26354009E0C9184D7DBF263540F5
:2039E0004D754178C9184D7D6D066D0E4D75D4E74178C9184A7D012422434A754078C018FC
:203A0000417D022211430AE04178C9184A7D402422434A754078C018417D4906490E4175F3
:203A2000F0BD521CD2B2032AA4D3F0BD6008044088B2000070B59AB0054616460C4668469A
:203A400007F05DF90021684607F05EF922462946684607F083F93146684607F0A9F8684699
:203A600007F046F900201AB070BD0000044AD16090605068401850600249022048707047EE
:203A8000881600205A02002010B50446044801F032FF04480021417001483038046010BD6F
:203AA000B81600205A02002010B5104C607800280CD001280BD002280ED0042806D10C493B
:203AC0000846203001F00EFF0020607010BD0948806AFFF7D9FF10BD002060700448103833
:203AE000C2688168303001F010FF10BD5A020020981600206CB60000014948707047000061
:203B00005A020020F8B50546002400882646010B01D1002803D1372125A002F0BDFE2888C5
:203B200001231946A14089B202460A408A4201D1264603E0641CA4B20C2CF2D32249FF2802
:203B400015D84A7E82434A76087E2A7890430876487EAA78D207D20FB24010434876087E87
:203B6000AA789207D20FB2401043087615E0CA7E8243CA76887E2A7890438876C87EAA78C3
:203B8000D207D20F083EB2401043C876887EAA789207D20FB240104388760020694602E00C
:203BA00000BF0878401C087008780128F8D9F8BD2E2E5C4472697665725C7372635C696EC8
:203BC00074702E6300000000206B044010B5C4070021194A194B002C01D011711971840795
:203BE00001D511721972440701D511731973040701D511741974C40601D51175197584067F
:203C000001D511761976440601D551715971040601D551725972C40501D5517359738405E6
:203C200001D551745974440501D551755975000501D55176597610BD0060004000610040EA
:203C400070B5114D2878114C002806D02078FF2803D00F48FCF73CFC80476878002807D02C
:203C60006078FF2804D00A48A030FCF731FC8047A878002806D0A078FF2803D00548FCF7F8
:203C800027FC804770BD00000060004000610040080000204801002070B50C4C20790C4DCC
:203CA000002806D02879FF2803D00A48FCF710FC80476079002807D06879FF2804D0054852
:203CC000A030FCF705FC804770BD000000600040006100400D00002070B50C4C207A0C4D4E
:203CE000002806D0287AFF2803D00A48FCF7F0FB8047607A002807D0687AFF2804D0054830
:203D0000A030FCF7E5FB804770BD000000600040006100401200002070B50C4C207B0C4D28
:203D2000002806D0287BFF2803D00A48FCF7D0FB8047607B002807D0687BFF2804D005480C
:203D4000A030FCF7C5FB804770BD000000600040006100401700002070B50C4C207C0C4D02
:203D6000002806D0287CFF2803D00A48FCF7B0FB8047607C002807D0687CFF2804D00548E9
:203D8000A030FCF7A5FB804770BD000000600040006100401C00002070B50C4C207D0C4DDC
:203DA000002806D0287DFF2803D00A48FCF790FB8047607D002807D0687DFF2804D00548C6
:203DC000A030FCF785FB804770BD000000600040006100402100002070B50C4C207E0C4DB6
:203DE000002806D0287EFF2803D00A48FCF770FB8047607E002807D0687EFF2804D00548A3
:203E0000A030FCF765FB804770BD000000600040006100402600002070B50C4C207F0C4D8F
:203E2000002806D0287FFF2803D00A48FCF750FB8047607F002807D0687FFF2804D005487F
:203E4000A030FCF745FB804770BD000000600040006100402B00002070B50C4C20780C4D71
:203E6000002806D02878FF2803D00A48FCF730FB80476078002807D06878FF2804D0054874
:203E8000A030FCF725FB804770BD000020600040206100403000002070B50C4C20790C4D0B
:203EA000002806D02879FF2803D00A48FCF710FB80476079002807D06879FF2804D0054851
:203EC000A030FCF705FB804770BD000020600040206100403500002010B50248FCF7F8FA61
:203EE000804710BD3A00002010B50248FCF7F0FA804710BD3F00002070B50C4C207C0C4D83
:203F0000002806D0287CFF2803D00A48FCF7E0FA8047607C002807D0687CFF2804D0054818
:203F2000A030FCF7D5FA804770BD000020600040206100404400002010B50248FCF7C8FA52
:203F4000804710BD4900002010B50248FCF7C0FA804710BD4E00002070B50C4C207F0C4D31
:203F6000002806D0287FFF2803D00A48FCF7B0FA8047607F002807D0687FFF2804D00548DF
:203F8000A030FCF7A5FA804770BD000020600040206100405300002070B5114D2878114C57
:203FA000002806D02078FF2803D00F48FCF790FA80476878002807D06078FF2804D00A48D2
:203FC000A030FCF785FA8047A878002806D0A078FF2803D00548FCF77BFA804770BD0000FF
:203FE0004060004040610040580000209801002070B5114D2879114C002806D02079FF2890
:2040000003D00F48FCF764FA80476879002807D06079FF2804D00A48A030FCF759FA80477B
:20402000A879002806D0A079FF2803D00548FCF74FFA804770BD0000406000404061004010
:204040005D0000209D01002070B5114D287A114C002806D0207AFF2803D00F48FCF738FA95
:204060008047687A002807D0607AFF2804D00A48A030FCF72DFA8047A87A002806D0A07A86
:20408000FF2803D00548FCF723FA804770BD0000406000404061004062000020A2010020CF
:2040A00070B5114D287B114C002806D0207BFF2803D00F48FCF70CFA8047687B002807D0F1
:2040C000607BFF2804D00A48A030FCF701FA8047A87B002806D0A07BFF2803D00548FCF7BD
:2040E000F7F9804770BD0000406000404061004067000020A701002070B5114D287C114C48
:20410000002806D0207CFF2803D00F48FCF7E0F98047687C002807D0607CFF2804D00A4815
:20412000A030FCF7D5F98047A87C002806D0A07CFF2803D00548FCF7CBF9804770BD0000F7
:2041400040600040406100406C000020AC01002010B50248FCF7BCF9804710BD7100002069
:2041600070B50C4C207E0C4D002806D0287EFF2803D00A48FCF7ACF98047607E002807D09F
:20418000687EFF2804D00548A030FCF7A1F9804770BD000040600040406100407600002049
:2041A00070B50C4C207F0C4D002806D0287FFF2803D00A48FCF78CF98047607F002807D07C
:2041C000687FFF2804D00548A030FCF781F9804770BD000040600040406100407B00002023
:2041E00070B50C4C20780C4D002806D02878FF2803D00A48FCF76CF980476078002807D071
:204200006878FF2804D00548A030FCF761F9804770BD0000606000406061004080000020C4
:2042200070B50C4C20790C4D002806D02879FF2803D00A48FCF74CF980476079002807D04D
:204240006879FF2804D00548A030FCF741F9804770BD00006060004060610040850000209E
:2042600070B50C4C207A0C4D002806D0287AFF2803D00A48FCF72CF98047607A002807D02A
:20428000687AFF2804D00548A030FCF721F9804770BD000060600040606100408A00002078
:2042A00010B50248FCF714F9804710BD8F00002010B50248FCF70CF9804710BD940000205D
:2042C00070B50C4C207D0C4D002806D0287DFF2803D00A48FCF7FCF88047607D002807D0F2
:2042E000687DFF2804D00548A030FCF7F1F8804770BD000060600040606100409900002037
:2043000070B50C4C207E0C4D002806D0287EFF2803D00A48FCF7DCF88047607E002807D0CE
:20432000687EFF2804D00548A030FCF7D1F8804770BD000060600040606100409E00002010
:2043400070B50C4C207F0C4D002806D0287FFF2803D00A48FCF7BCF88047607F002807D0AB
:20436000687FFF2804D00548A030FCF7B1F8804770BD00006060004060610040A3000020EA
:20438000F8B5C4B20A460546552C05D2A000134F2618B85D002801D00120F8BDF119104683
:2043A000491CFCF7A0F80120B855E817C00E401941094901691A8900401108180849002631
:2043C00040180670284602F055F9E006400E610940180449401806703046F8BD07000020FE
:2043E0000060004000610040FEE7000008B501206946088088706846FFF784FB03490120FA
:20440000FFF7BEFF0120FFF7E1FB08BDB56A000072B60120034900048860BFF35F8F72B6C9
:204420000148004700ED00E0C500010010B500F009F800F02DF810BD014800787047000049
:20444000A40200200149022008707047A402002010B50446087A3D2807D12146002000F0F0
:20446000AFFC002802D00020A07210BD0821A172204600F031FD20720920F5E710B5017A01
:204480003C2903D10146002000F0E8FB10BD000010B506490020C8808870C91C087000F01B
:2044A000FDF800F083F900F0CBF910BDA6020020F8B5514E00250446F580B078F71C0128BE
:2044C0001AD0022823D0032878D0042813D1B57000F0B6F9494D1026A87A00286FD0287A97
:2044E00000F01FFD6A7A294600F009FDA0427ED14248FFF7C3FFF8BD552C06D0B57000F0D3
:204500009FF938780421084373E0022068E0204600F022FD002854D0A006800E694608700A
:204520000024374F3EE0A0006946385C0978884236D16846007831490872A000C019C278B1
:204540008A7242784A728078002803D07078002804D021E00320B070357027E000F0C6F874
:20456000002823D124486946C07808702349009A08460B30FFF76CFF20480B30817A00299D
:204580000AD035710520B0701E4A012010731B480B3000F0D7F809E0B57000F051F905E0C0
:2045A000641CE4B2FFF748FFA042BCD8FFF744FFA042A0D8B57000F043F9F8BD06E011E0C2
:2045C00015E03878402108433870F3E70B4930780C54401CC0B23070497A8842EDD30420CD
:2045E000B070EAE7697A054800F076FC7EE7387830433870E1E70000A602002067270020CA
:20460000C0B6000020610040F8B5174B0024DC809978052926D1154E197937467054491C03
:20462000C9B219711537B87A002288421AD80020DD1C06E00D4B3E5C1B5CB34205D1401C8A
:20464000C0B28842F6D3002A04D0287808210843287003E0002000F07BFB2C700248847068
:2046600000F0EEF8F8BD0000A60200205D2700201CB50020009002216A46019011809070CD
:20468000107101219171D07069460220FEF7EEFF02210846FFF728F91CBD000010B50E4905
:2046A0000320C87401210846FCF75EFB0B480024C482FFF79BFE00F01FF84B20000200F02F
:2046C0007BF807480749847004701420FFF758FE05490120087410BD60040440A01D04407F
:2046E000B002002039B00000406100400148007870470000B00200207CB5002400941023B8
:204700000A22042101200194FFF772F81123092202210120FFF76CF80421684601808470ED
:20472000047101258571C47069462846FEF79EFF0221684601808570C47069460120FEF7C5
:2047400095FF7CBD70B5134E3278002A07D1002905D000257570B1702A460F4B05E0002062
:2047600070BD845C9C54521CD2B28A42F9D301210A48317002890A4B9A4204D045810289BC
:204780000A43028141810748057207480172012070BD0000B00200207D27002020110440A6
:2047A0000F0F0000206100402060004010B502210846FFF799F810BD1FB5002100900191B9
:2047C0000291039107206A4690801020D0801181D181802090813220508169460B4801F0A0
:2047E00015FE040007D0FF22583209A106F022FC204604B010BD0B490A20FFF7C1FD0A49F6
:204800000B20FFF7BDFD0020F3E70000101000002E2E5C4C494E5C4C494E5F48775F447296
:20482000762E630019B100009DB00000024900200873024908737047206000402061004076
:2048400010B5094C0321204601F02AFA074800210174A3229200E2820548017403212046B3
:2048600001F0F8F910BD0000801D0440406000404061004070B50F4D00240421284601F0BE
:204880008BFD002800D040240121284601F084FD002801D0042004430221284601F07CFDD3
:2048A000002801D0802004430721284601F0F2FC204670BD10100000F3B581B00026684643
:2048C0000680002935D0019D2C201F4F4543EC1920460830A061608AA083002006E0227DEE
:2048E0000B18D25C2318401C1A72C0B2628A8242F5D8785D042802D1019800F05FF8785DCC
:20490000062810D1A6832146183160886A46FCF775FD618AA183012802D000280AD002E0C4
:20492000019800F089F9785D052802D1019800F00DF8FEBD68460088814202D90620785587
:20494000FEBD05207855F1E720170020F1B582B0002069460880029D2C20174F4543EC196E
:204960002146183160886A46FCF748FD0646012802D0002E03D01CE06088012111E0208ACE
:20498000A18B401A0004000C208208D0062800D3062069460988814209D3052008E060880C
:2049A0000021FEF70BF9029800F046F901E0062078553046FEBD000020170020FEB50746B8
:2049C000012001900020694608803D462C200F4E4543AC192146228A183160886B46FDF76C
:2049E00035FC002803D0022070550198FEBD6946608A0988884207D960880121FEF7DEF8A7
:204A0000384600F019F9F0E70520EDE720170020F8B505462C201A4F4543EC192146012627
:204A2000183160886B460022FCF718FD022804D0002805D001281DD020E0082078551DE067
:204A4000208AA18B401A0004000C20820AD1207D4018C0B2AA2103E02218401C1172C0B2F9
:204A60000828F9D320342078401C0007000F2070002603E060880121FEF7F4F83046F8BD2D
:204A80002017002070B5134D002420462C21484302464019418C002910D0491E0904090CD8
:204AA00041840BD1A95C022908D0408807290AD00121FEF783F8204600F0BEF8641C240633
:204AC000240EE2D070BD0121FEF7CCF8204600F0F1F9F3E720170020F3B581B0019E2C20B5
:204AE0001B4F4643F419258A002D28D0029A21465278203108781207120F904220D1401CEB
:204B00000007000F0870A0881249C00040184068114906F025FB1149FBF79EFDFBF74CFE31
:204B20006084062D01D2658201E006206082022020750520B85502990198FFF7BDFEFEBD32
:204B400060880121FEF73AF8019800F075F8FEBD20170020A4B6000000007A440000A04024
:204B6000F8B5064648780D4600078978000D084306282DD92C2037464743164816493C1831
:204B8000A088C000009040184068144906F0E8FA1349FBF761FDFBF70FFE60846878A978D8
:204BA0000007000D08432082052060820320207501212020015508490098085A6080002032
:204BC000208504480421C15529463046FFF774FEF8BD000020170020A4B6000000007A4438
:204BE0000000A04070B54B785A1E052A11D82C220446084D54436219138253820223137547
:204C00009388054EDB00F35A538004222A55FFF753FE70BD20170020A4B600000020054AF2
:204C200002212C234343401C0006D154000EF8D070470000201700202C225043064A0221BD
:204C40001154002180184184018581800182012120308172704700002017002010B5002906
:204C600004D00A78002A01D000F002F810BD0000F3B581B0019F2C2257430020324A00909F
:204C80004878BE180C46354601092035002902D00009012828D12C48C05D022808D0207801
:204CA0007E2805D070880121FDF788FF0120A872B088264AC00080188078217888422AD054
:204CC0000020C3009B189B788B4203D1B0800020A87209E0401CC0B20228F2D300980028BA
:204CE00002D1019800F0E6F8A87A002812D120787E2813D015498978814220D16078010937
:204D000013D00009012815D0022803D121460198FFF7E2FEFEBD0020A872E8E70A48C05D92
:204D20000228F7D160780009F4D121460198FFF759FFFEBD21460198FFF712FFFEBD019877
:204D400000F0B8F8FEBD000020170020A4B6000070B505462C20164968434418208A002853
:204D60001DD02021095D2022114361720221217521460A31A161062800D90620A0830C205D
:204D800045430C480C4928188038C06F06F0E8F90A49FBF761FCFBF70FFD608470BD60884B
:204DA0000021FDF75FFF284600F084F870BD000020170020B4B6000000007A440000A0401A
:204DC000F3B581B0019D2C200D4F4543785D01240E4607280ED10198FFF71AFE04460128B6
:204DE0000AD00020E9190A18127A3254401CC0B20828F8D32046FEBD019800F05BF8F9E7DD
:204E000020170020F8B5264D0646287801270C46022805D0002000F04DF8287802283DD189
:204E20000C2046431F480322311808462A704038808E688008462038807D2872A088688243
:204E40002882A088431E062B07D268720220287513480A30A861A08811E0134EC31FB3428D
:204E60000ED20005000F103068722079A8720C482A750022203002701538A8610520A883F4
:204E80008039886F094906F06BF90949FBF7E4FBFBF792FC68840720287000273846F8BD0E
:204EA00020170020B4B60000F90F000000007A440000A0402C225043064A022111540021B1
:204EC00080184184018581800182012120308172704700002017002010B50022134608E0D0
:204EE000C45CA21892B2FF2A01D9D2B2521C5B1CDBB28B42F4D3FF204240D0B210BD10B552
:204F0000002308E0CC5C201880B2FF2801D9C0B2401C5B1CDBB29342F4D3FF214840C0B26B
:204F200010BD4108C2084A40D30710B5C206DB0FD20F84065340E40F6340012441406340D9
:204F400021404407E40F614051408206920ED80189010843104310BD4108C2084A40D30713
:204F600010B5C206DB0FD20F84065340E40F634001244140634021404407E40F614051400C
:204F8000C2099A4205D14006C00F884201D1012010BD002010BD0000F7B54D4D00262E600E
:204FA0006E604C4F1446AE60E869012805D0A969012902D0296A49082962298CC90519D4E4
:204FC000012817D0A869012814D0019800F084F82863411C56D0FF21090208432862286800
:204FE000A04206D169692869814202D20120E86148E0EE61288CC007A8691DD0012823D088
:20500000019800F069F82863411C3BD0C1B2009800F08EF8E868298E3954401C0005000D30
:20502000E8602868A04205D169692869814201D2EE6127E0EE6147E0012805D0019800F094
:205040004BF86862401C1DD02868A04207D169692869814203D20120EE61A86112E00198B1
:2050600000F03AF8A862411C0CD0F02101406A6A090111430007000FEE62801C6962A86270
:20508000304614E0A868FEBDA98C08180005000D395C2963009800F04BF8E868298E3954F4
:2050A000401C0005000DE860E86A401CE862A96A8842E9DD29682846A14205D141692869AC
:2050C000814201D2AE61B3E7AE61EE616CE70000600200204C170020074B5A6919698A4278
:2050E00006D21968405C491C521C5A61196070470020C043704700006002002070B5094C27
:205100000546202221460848FBF7B9F9074A0023136253619361D36153621561D46093628E
:2051200070BD0000EE0F00004C17002060020020002807D0044B5A688154521C5A60986833
:20514000401C9860704700006002002010B500F019FD10BD10B5002303E0CC5CC4545B1CA8
:20516000DBB29342F9D310BD0149012008747047480B00207047000030B5FF25C1B00446A8
:2051800001352A460B496846FBF726FF04220A4940A8FBF721FF20462A466946083005F02B
:2051A000D5F92046042240A9103005F0CFF9002041B030BD000450000005500030B5DFB094
:2051C0000446154601A805F011FB01A8FFF7D4FF01201D9009201E9003A804F01CFAC01DD7
:2051E000C008FF220290013221461FA8FBF7F4FE01A805F099FA01F088F91FA800902B4684
:205200002022092101A805F033FB002801D0012400E00024002C00D0022401A805F0AEFACC
:2052200020465FB030BD0000F7B50125114E1746002401990098FBF77DFE002805D1FFF7C7
:2052400093FF0025012038703581641CF1D0002D0BD13089142808D2074BC100009A5A50A8
:20526000C918019A401C4A6001E00020C04330812846FEBD10020020740A002010B50E49E2
:205280008878012803D024201070002010BD002088704C786422002C03D01870022058708E
:2052A00005E0C978002904D00521597018709A70EBE75870FAE7000010020020F8B51B498C
:2052C0001F46096801231B040125194C994200D16571A3782221002B25D1A57023795B1EFF
:2052E000022B20D272B60023FF212278013100F0AFFB002807D02079401C20716570022042
:20530000387062B610E0002666700A4826710168202209480C31FBF74DFE002801D0E57034
:20532000EDE7E670EBE711700020F8BDF0010020100200206CB6000098160020FEB51C46D3
:205340002AA10AC900912B49019300221320097800031546002904D0012938D002293ED07A
:2053600028E0254910270978002903D023490978002907D0224909884B0501D5890503D48F
:20538000277013E0277015E01E490126497900290BD007226946FBF70DFE1A49CA781346D0
:2053A000034309D0002A14D017E026706570A570E57025711046FEBDCE700220FBF782FC7D
:2053C00025706570A570E5700A48257106700220FEBD002801D0267002E0277000E0257041
:2053E0006570A570E57025710020FEBD646F747275737400BB010020B8010020B70100205B
:20540000D001002010020020FFB5294BFF271B88017809373B431646254F81B00A0700240B
:205420003B80120F090913232546042901D1042A01D0337039E000210327421852787B1A1F
:20544000DB009A40491C1443C9B20429F5D30021421852797B1ADB009A402A43491CC9B28E
:2054600015460429F4D3012000043127844205D07F204002844201D0377016E011462046F3
:20548000FBF740FD002805D009482022018811430180F1E729462046FDF7F0FD002801D068
:2054A000012100E0002104980170002005B0F0BDD0010020F8B50446184800270E46044231
:2054C00001D1002C03D1DE2115A001F0E5F9200B00F0F4F90090194825072D0F844208D078
:2054E000801C844205D01648844202D01548844211D12220B04304D129460098FBF78AFBF2
:2055000007461220B04304D1691C0098FBF782FB07463846F8BD2946F7E700008C8F0000D0
:205520002E2E5C4472697665725C7372635C7363695F636F6D6D6F6E2E630000101000006F
:205540001020000010400000F8B5044616480F46044201D1002C04D1FF21063113A001F00D
:205560009BF9200B00F0AAF90646174825072D0F844208D0801C844205D01448844202D0FD
:20558000134884420ED12220B84303D129463046FEF744F81220B84303D1691C3046FEF7F3
:2055A0003DF8F8BD2946F9E78C8F00002E2E5C4472697665725C7372635C7363695F636F03
:2055C0006D6D6F6E2E630000101000001020000010400000FFB587B02A4902911F46C106C6
:2055E00001D5022004E0400601D5012000E000200390002F03D010980770012000E01020AD
:205600000025059031E0002F00D03D461E486900415A0898FAF76FFF0490039C21E061003F
:20562000891C0498FAF767FF06460998FBF708F906900998301AFBF703F9124905F090FDA6
:205640000699FBF709F806464100029849084000400805F0DDFD02D2029600950194641CD3
:20566000E4B27F2CDBD96D1CEDB205988542CAD310990098087010990198487002980BB004
:20568000F0BD00000000C84268B2000070B50C4639490546084201D1002D04D1FF21B631D0
:2056A00036A001F0F9F83C493C4E681A8D4258D024DC3B4A3B49A81A95421BD012DC3A4AAB
:2056C000A81A954239D008DC3848281845D0022813D1C8892043C88137E0012831D00228F9
:2056E0000BD132E01D2828D01E282AD01F282CD0202802D1C8892043C88170BD012252033F
:20570000811A2B4B904230D00BDC102821D0112803D030281DD03128EFD1F0882043F080E1
:2057200070BD102924D0112903D0302920D03129F6D1D8882043D88070BD088920430881D3
:2057400070BD48892043488170BD88892043888170BDB0882043B08070BD48892043488153
:20576000EBE7F0882043F080F3E7D8882043D88098882043988070BD8C8F00002E2E5C4438
:2057800072697665725C7372635C7363695F636F6D6D6F6E2E6300001020000000140440A1
:2057A000231000000011044020100000F0EFFFFF0016044070B504462E480D46044201D1AA
:2057C000002C04D1FF214B312BA001F065F83149314B601A8C4247D01EDC304A3049A01A17
:2057E00094423FD00FDC2F4AA01A94422DD005DC2D48201834D002282CD133E001282FD0DF
:20580000022827D128E01D281FD01E2828D01F2822D020281ED125E001225203811A234CF5
:20582000904225D008DC102818D011281CD0302814D031280ED117E0102917D0112917D0CC
:20584000302913D0312905D112E00888294600F02FF80546284670BD8888F7E71888F5E784
:205860004888F3E7C888F1E75888EFE72088EDE76088EBE78C8F00002E2E5C44726976659D
:20588000725C7372635C7363695F636F6D6D6F6E2E63000010200000001404402310000023
:2058A0000011044020100000F0EFFFFF00160440024600200A4200D00120704730B50446A1
:2058C00000200346012529468140C9B222460A408A4201D1034603E0401CC0B20428F2D353
:2058E000184630BD10B5044605F062F9204605F0FFF9002010BD10B5044605F000FA00219F
:20590000204605F001FA002010BD10B505F026FA002010BD10B586B0044610220E49684601
:20592000FBF75AFB04AA0D49684600F039F8E068002104AA8B1CC35C545CA34202D00120E8
:2059400006B010BD491CC9B20429F3D30449042048700020F4E70000000650001A0200203B
:20596000BC09002070B50C4E054600240B48FBF7B7F93055641CE4B2042CF7D32969307890
:20598000887029697078C8702969B07808712969F0784871002070BD1A020020F4010020D9
:2059A000F7B586461F488AB084466F4600229407A40F60460C5D835CE507DE07ED0F002004
:2059C000F60F6D1C761C0C5CF440AB405C40401CE3B20428F7D3BB54521C102AE7D304AA7E
:2059E00039467046FBF700F90446012817D00020102204A9C04300F051FF0890010E0C98A0
:205A0000017008980C99000C487008980C99000A88700C990898C87020460DB0F0BD0898D8
:205A2000ECE7000094B6000010B50146FF23074A00200401145D8C4201D1034603E0401C0C
:205A4000C0B20A28F5D3184610BD0000C8B5000030B5044619480D46016895B0080E6B46DA
:205A60001870080C5870080A9870D97000221A715A719A712C20D871024602A8FBF7ACFABD
:205A80000DAA34216846FDF7D5FFE9B220230DAA2046FFF793FB030000F0DEFD05040D071A
:205AA000090B0D00002015B030BD0220FBE70320F9E70420F7E70120F5E700006CB60000CB
:205AC00010B5094C2068401C02D02068401C206000F04EF805212068FAF70DFD002901D1B8
:205AE00000F0ACF810BD00009C02002010B5FBF7B7F90149086010BD0000002010B514495F
:205B00008020487112481A21203801722B2141723C2181724D21C1720E4900204860FBF7CB
:205B20009FF90D49086000200C49C04308600C4908600D490B48086048608860C860086140
:205B400048618861C8610949AC20487010BD00002004024000B001400000002080E200E02E
:205B600000E100E0C0C0C0C000E400E00010024003494868002801D0401E4860704700009C
:205B80009402002010B500210120FBF7AFF8012100220846FBF742F9FBF732F910BD000006
:205BA00010B50449002008600349086000F006F810BD00009C020020A002002010B5FFF7A1
:205BC00095FF0C487D21C9000068FAF794FC0A49401E88420CD80949486109480722C3698D
:205BE0001B021B0A4C042343C361002088610A6110BD000000000020FFFFFF0000E000E06B
:205C000004ED00E010B500F079FC10BD10B572B6002003490861034800F072FB10BD000085
:205C200000E000E01010000001480078704700005802002010B5FFF7B3FF10BD01490120ED
:205C4000087070475802002001490870704700005802002070B504460A480D46844206D0F8
:205C60000948844203D04D2108A000F015FE082D03D34E2105A000F00FFE0120A840608616
:205C800070BD0000801D0440805D04402E2E5C4472697665725C7372635C74696D2E6300D6
:205CA00070B504460A480D46844206D00948844203D0642108A000F0EFFD082D03D36521B0
:205CC00005A000F0E9FD0120A840A08670BD0000801D0440805D04402E2E5C447269766539
:205CE000725C7372635C74696D2E6300F8B50446002000908888012716460D46062809D0C2
:205D0000072807D0082805D00E2803D07B2170A000F0C2FDE888102805D0202803D07C21DF
:205D20006BA000F0B9FD288900280BD0C11FFF39FA3907D003210902884203D07D2164A06E
:205D400000F0AAFD6889CD21084201D1002803D17E215FA000F0A0FD698922208843E11D8D
:205D6000FF31FA3100282AD12089072210432081208A20221043AA7A1207120F0243228259
:205D8000208B594A10432A890243A8891043EA880243A88810432083088A420A70781043F0
:205DA0000A8AD205D20D400202430A8200220020401C80B21428FBD3521C7D2AF7D36889DC
:205DC00012221346834345D160890723184360814648007C01231843444B1874608A20233A
:205DE0001843009B1843FF2301331843EB890343022003436382608B3D4B18432B890343D2
:205E0000A8891843EB89034310200343A88818436083488A430A707818434B8ADB05DB0D59
:205E2000400203434B82A08EE989002906D03843A08669891046884302D00BE0B843F7E724
:205E4000A08C022108438007A18C800F890889000143A1846B8922210846984309D1A08C7C
:205E6000012318438007A38C800F9B089B000343A384E08CE08C00090001E084E08C337856
:205E8000000900011B071B0F1843E0846889824309D1608C022210438007628C800F92085C
:205EA000920002436284688981430FD1218D012001432185618D01436185618C01438807FF
:205EC000618C800F89088900014361840020F8BD2E2E5C4472697665725C7372635C756134
:205EE00072742E6300000000048000006004044004400000F8B5044604277803009088887E
:205F000016460D4606280AD0072808D0082806D00E2804D0FF210E3161A000F0BDFCE8883A
:205F2000102806D0202804D0FF210F315CA000F0B3FC288900280CD0C11FFF39FA3908D064
:205F400003210902884204D0FF21103154A000F0A3FC6889CD21084201D1002804D1FF2178
:205F600011314FA000F098FC688922218143E01DFF300722FA30002919D1A281A97A202359
:205F80000907090F1943009B1943A1824A492B890B43A9891943EB880B43A9881943A183CE
:205FA000818A7378C905C90D5B0219438182698912238B430C21002B2ED1E2813F4A127CC5
:205FC00004231A433D4B1A743D4BEA891A4302231A43E2823B4A2B891343AA891A43102397
:205FE0001A43AB881343E383C28A7378D205D20D5B021A43C282A08EEA89002A06D038434E
:20600000A0866A891220904302D005E0B843F7E7A08C88430830A0846A8922231846904316
:2060200003D1A08C8843001DA084E08CE08CF0229043E084E08C904332781207120E1043BE
:20604000E0846A891220904309D1608C02220007800F1043628C80008A43024362846889BA
:2060600083431BD1208D238D0007820F0120024392008B4313432385628D638D1207920F1C
:20608000024392008B4313436385628C1207920F02439000628C8A43024362840020F8BDE5
:2060A0002E2E5C4472697665725C7372635C756172742E6300000000048000006004044043
:2060C0002081000004400000F8B504468888012716460D4606280AD0072808D0082806D0E8
:2060E0000E2804D0FF21903161A000F0D5FBE888102806D0202804D0FF2191315CA000F08C
:20610000CBFB288900280CD0C11FFF39FA3908D003210902884204D0FF21923154A000F04D
:20612000BBFB6889CD21084201D1002804D1FF2193314FA000F0B0FB688922218143E01D4E
:20614000F930002918D10721A180A97A20220907090F114321814C492A890A43A98911431D
:20616000EA880A43A9881143A181018A7278C905C90D5202114301826A8912210B46934328
:2061800031D10722E280414A127C10231A433F4B1A74EA890B011A4302231A4362813C4AEA
:2061A0002B891343AA891A4310231A43AB881343E381428A7378D205D20D5B021A434282DD
:2061C000208CEA89002A06D0384320846A890846904303D007E040084000F6E7A08A80089C
:2061E0008000801CA0826B8922221046984304D1A08A80088000401CA082E08AE08A000996
:206200000001E082E08A3378000900011B071B0F1843E0826889814309D1608A022108430C
:206220008007618A800F8908890001436182688982431BD1218B012001438907228B890F94
:20624000920892000A432283618B628B01438907890F920892000A436283618A01438807BF
:20626000618A800F89088900014361820020F8BD2E2E5C4472697665725C7372635C756194
:2062800072742E630000000004800000600404400440000070B504460F480D4684420CD05C
:2062A000801C844209D00D48844206D00C48844203D00C490CA000F0EFFAE80801D1002DFC
:2062C00004D1084908A0491C00F0E6FA29462046FFF7DCF970BD000010100000102000009E
:2062E00010400000910300002E2E5C4472697665725C7372635C756172742E630000000049
:20630000F8B51C4E0446B51CB0420BD0AC4209D01948844206D01948844203D0572118A090
:2063200000F0BAFAA70AB4420ED132212846FFF7C1F840B2002807D100213846FAF714FD30
:2063400032212846FFF700F9AC420ED132213046FFF7B0F840B2002807D100213846FAF7D7
:2063600003FD32213046FFF7EFF832212046FFF7EBF8F8BD10100000102000001040000090
:206380002E2E5C4472697665725C7372635C756172742E630000000070B5044611480D4671
:2063A00084420DD0801C84420AD00F48844207D00E48844204D07521C9000DA000F06CFAB8
:2063C00067212846884301D1002D03D10E4908A000F062FA29462046FFF7ECF9002800D036
:2063E000012070BD1010000010200000104000002E2E5C4472697665725C7372635C7561B5
:2064000072742E6300000000A9030000FEB50C4605464989FFF74EF846B2002E27D1324863
:2064200001AF2918A80A002923D002293AD001221203891A4FD05000814218D1E80A01215E
:20644000FAF7B6FC29482A49029009680097C08A226803071B0F2846FFF7BCF87F21C9058D
:2064600088423DDC01AA21460298FFF72DFE3046FEBD0121FAF778FC1E481D4902900968E5
:206480000097C08C226803071B0F2846FFF7A2F87F21C905884223DC01AA21460298FFF784
:2064A00025FCE4E70121FAF75FFC12481049029009680097C08C22680006030F2846FFF7E3
:2064C00089F87F21C90588420ADC01AA21460298FFF710FDCBE70121FAF746FC0648B2E780
:2064E0000520C043FEBD0000F0EFFFFF001604400000002000110440001404400149AC209F
:206500004870704700100240704710B5FFF77AFB10BD704772B6BFF34F8F04490248C860D8
:20652000BFF34F8F00BFFDE70400FA0500ED00E070470000F7B5384B01279D44FFF7E5FF8F
:206540000025364EFFF7E1FF3548684441690069FAF7F0FC002811D0002401276D1CF1D004
:20656000002C4ED02E496944086900902D488079002808D02B4E01280AD03FE02949681CAD
:20658000F4680870EAE7486901908869029032E004AF23493846F9F799FF224D00200E3588
:2065A000F17903E02A5C3A54401C80B28842F9D31B4B78186B445A699969FEF7EDFC1849AD
:2065C00080B2884201D3012718E0F179401882B29107890FF1710BD00020551A06E0114B97
:2065E0002E18BE5D0E331E54401C80B28842F6D3501A029701906846A04707460948019905
:206600004161002F03D000210648C9430181044B38461C339D44F0BDF0F7FFFF30020020F8
:206620000008000010020020F8B5040C8BB2264682B25E430D0C1046370C584336048019C5
:206640000021794116466E43370C36048019794126466E438919F8BD30B47446641E257851
:20666000641CAB4200D21D46635D5B00E31830BC18470000002805DBC106C90E0120884088
:20668000014908607047000080E200E0FFB581B0064604240F460C5F03980421415E204671
:2066A000484358431BD53846039902F0BAFF05000AD439463046039A03F0CCFF00280CD1C7
:2066C000002D13D1012411E03A463046039903F0C1FF002801D16142B18005B0F0BD39469F
:2066E0003046039A02F044FF0028F6D1B480F4E7F0B5FFB082B00021012041AD6C46685430
:2067000043002154020601D51B2200E0002253404340491CD8B2FF29F1DD0020544A0121C9
:206720008300D1504B00090601D51B2100E000214B40401CD9B20A28F2DB63214D4B4E4825
:2067400019700022C27001200F46225CFF218A1AA95C4A00CE093243D2B251405600D209C3
:206760001643F2B251405600D2091643F2B251405600D2091643F2B251403F4A794019545E
:20678000603A5054401CFF28DFDD00253948405D4200010601D51B2100E000214A40D1B2D0
:2067A0000B46020243404A4000044240180642403248AE0082511820C24131488251182097
:2067C000C241304882511820C2412F4882512A486038445D002C13D06846817B005D409055
:2067E0000818FF21F9F787FE41A8475C6846417A40980818FF21F9F77EFE41A8405C01E005
:206800000027384600024740002C09D06846417B005D0818FF21F9F76EFE41A8405C00E07D
:20682000002000044740002C09D06846C17A005D0818FF21F9F75FFE41A8405C00E0002050
:20684000000647400C48A03087511820C7410F4887511820C7410E4887511820C7410D483D
:206860006D1C8751FF2D91DD7FB002B0F0BD00008849002088270020E838002088280020BF
:20688000882C00208830002088340020883D00208841002088450020FEE70000F0B5FFB07C
:2068A000FFB082B09446124F6A46002423460825DE0702D05B087B4000E05B086D1E002D82
:2068C000F6DCA500641C5351FF2CEFDD002307E0CC5C44402406A40D1459000A60405B1C07
:2068E0006345F5D37FB07FB0C04302B0F0BD00002083B8ED03E00021491C0B29FCD3401E56
:20690000F9D27047F0B5334F272239681201324C91424DDB521C914201D100F0ADF8002090
:2069200082001319A1585D68C90F6D00C9076D08294303256D025B195D6BCB075E0F254B73
